{
  "_format": "hh-sol-artifact-1",
  "contractName": "Presale",
  "sourceName": "contracts/Presale.sol",
  "abi": [
    {
      "inputs": [
        {
          "internalType": "contract IERC20",
          "name": "_token",
          "type": "address"
        },
        {
          "internalType": "address",
          "name": "initialOwner",
          "type": "address"
        }
      ],
      "stateMutability": "nonpayable",
      "type": "constructor"
    },
    {
      "inputs": [
        {
          "internalType": "address",
          "name": "owner",
          "type": "address"
        }
      ],
      "name": "OwnableInvalidOwner",
      "type": "error"
    },
    {
      "inputs": [
        {
          "internalType": "address",
          "name": "account",
          "type": "address"
        }
      ],
      "name": "OwnableUnauthorizedAccount",
      "type": "error"
    },
    {
      "anonymous": false,
      "inputs": [
        {
          "indexed": true,
          "internalType": "address",
          "name": "previousOwner",
          "type": "address"
        },
        {
          "indexed": true,
          "internalType": "address",
          "name": "newOwner",
          "type": "address"
        }
      ],
      "name": "OwnershipTransferred",
      "type": "event"
    },
    {
      "inputs": [],
      "name": "buyTokens",
      "outputs": [],
      "stateMutability": "payable",
      "type": "function"
    },
    {
      "inputs": [],
      "name": "owner",
      "outputs": [
        {
          "internalType": "address",
          "name": "",
          "type": "address"
        }
      ],
      "stateMutability": "view",
      "type": "function"
    },
    {
      "inputs": [],
      "name": "renounceOwnership",
      "outputs": [],
      "stateMutability": "nonpayable",
      "type": "function"
    },
    {
      "inputs": [],
      "name": "token",
      "outputs": [
        {
          "internalType": "contract IERC20",
          "name": "",
          "type": "address"
        }
      ],
      "stateMutability": "view",
      "type": "function"
    },
    {
      "inputs": [
        {
          "internalType": "address",
          "name": "newOwner",
          "type": "address"
        }
      ],
      "name": "transferOwnership",
      "outputs": [],
      "stateMutability": "nonpayable",
      "type": "function"
    },
    {
      "inputs": [],
      "name": "withdraw",
      "outputs": [],
      "stateMutability": "nonpayable",
      "type": "function"
    }
  ],
  "bytecode": "0x608060405234801561001057600080fd5b5060405161049338038061049383398101604081905261002f916100f6565b806001600160a01b03811661005e57604051631e4fbdf760e01b81526000600482015260240160405180910390fd5b6100678161008e565b5050600180546001600160a01b0319166001600160a01b0392909216919091179055610130565b600080546001600160a01b038381166001600160a01b0319831681178455604051919092169283917f8be0079c531659141344cd1fd0a4f28419497f9722a3daafe3b4186f6b6457e09190a35050565b6001600160a01b03811681146100f357600080fd5b50565b6000806040838503121561010957600080fd5b8251610114816100de565b6020840151909250610125816100de565b809150509250929050565b6103548061013f6000396000f3fe6080604052600436106100555760003560e01c80633ccfd60b1461005a578063715018a6146100715780638da5cb5b14610086578063d0febe4c146100bc578063f2fde38b146100c4578063fc0c546a146100e4575b600080fd5b34801561006657600080fd5b5061006f610104565b005b34801561007d57600080fd5b5061006f610149565b34801561009257600080fd5b506000546001600160a01b03165b6040516001600160a01b03909116815260200160405180910390f35b61006f61015d565b3480156100d057600080fd5b5061006f6100df3660046102a1565b6101e4565b3480156100f057600080fd5b506001546100a0906001600160a01b031681565b61010c610224565b600080546040516001600160a01b03909116914780156108fc02929091818181858888f19350505050158015610146573d6000803e3d6000fd5b50565b610151610224565b61015b6000610251565b565b600061016a3460646102d1565b60015460405163a9059cbb60e01b8152336004820152602481018390529192506001600160a01b03169063a9059cbb906044016020604051808303816000875af11580156101bc573d6000803e3d6000fd5b505050506040513d601f19601f820116820180604052508101906101e091906102fc565b5050565b6101ec610224565b6001600160a01b03811661021b57604051631e4fbdf760e01b8152600060048201526024015b60405180910390fd5b61014681610251565b6000546001600160a01b0316331461015b5760405163118cdaa760e01b8152336004820152602401610212565b600080546001600160a01b038381166001600160a01b0319831681178455604051919092169283917f8be0079c531659141344cd1fd0a4f28419497f9722a3daafe3b4186f6b6457e09190a35050565b6000602082840312156102b357600080fd5b81356001600160a01b03811681146102ca57600080fd5b9392505050565b80820281158282048414176102f657634e487b7160e01b600052601160045260246000fd5b92915050565b60006020828403121561030e57600080fd5b815180151581146102ca57600080fdfea2646970667358221220a7485b96d9cb4d75bd3d0fbc5816772d7ebe11da919d2faa0ab5fa30d1c1640b64736f6c63430008140033",
  "linkReferences": {},
  "deployedLinkReferences": {}
}